{
  "transactions": [
    {
      "hash": "0xc71925553adee586bb3eac980f70bbfddf8cecdf161b37bfeba3d8737c3c75fc",
      "transactionType": "CREATE",
      "contractName": "OwnedSubscriptionManager",
      "contractAddress": "0xf0633E4e90FFAC8201B369c2527fF485Ea6133dd",
      "function": null,
      "arguments": [
        "0x9444390c01Dd5b7249E53FAc31290F7dFF53450D"
      ],
      "rpc": "https://eth-goerli.g.alchemy.com/v2/CZTHmy1An3gYtg1KQR7pGMNChAIk8Tr4",
      "transaction": {
        "type": "0x02",
        "from": "0x9444390c01dd5b7249e53fac31290f7dff53450d",
        "gas": "0x7a702",
        "value": "0x0",
        "data": "0x60a06040526daaeb6d7670e522a718067333cd4e60805234801561002257600080fd5b50604051610642380380610642833981016040819052610041916100ed565b600080546001600160a01b0319166001600160a01b03831690811782556040518392907f8be0079c531659141344cd1fd0a4f28419497f9722a3daafe3b4186f6b6457e0908290a350608051604051632210724360e11b81523060048201526001600160a01b0390911690634420e48690602401600060405180830381600087803b1580156100cf57600080fd5b505af11580156100e3573d6000803e3d6000fd5b505050505061011d565b6000602082840312156100ff57600080fd5b81516001600160a01b038116811461011657600080fd5b9392505050565b60805161050d6101356000396000505061050d6000f3fe608060405234801561001057600080fd5b50600436106100725760003560e01c80638da5cb5b116100505780638da5cb5b1461009c578063e30c3978146100df578063f2fde38b146100fd57600080fd5b806323452b9c14610077578063395db2cd1461008157806379ba509714610094575b600080fd5b61007f610110565b005b61007f61008f36600461049a565b6101d5565b61007f61029c565b60005473ffffffffffffffffffffffffffffffffffffffff165b60405173ffffffffffffffffffffffffffffffffffffffff909116815260200160405180910390f35b60015473ffffffffffffffffffffffffffffffffffffffff166100b6565b61007f61010b36600461049a565b61037e565b60005473ffffffffffffffffffffffffffffffffffffffff163314610161576040517fd238ed5900000000000000000000000000000000000000000000000000000000815260040160405180910390fd5b6001546000805460405173ffffffffffffffffffffffffffffffffffffffff93841693909116917f682679deecef4dcd49674845cc1e3a075fea9073680aa445a8207d5a4bdea3da91a3600180547fffffffffffffffffffffffff0000000000000000000000000000000000000000169055565b60005473ffffffffffffffffffffffffffffffffffffffff163314610226576040517fd238ed5900000000000000000000000000000000000000000000000000000000815260040160405180910390fd5b600180547fffffffffffffffffffffffff00000000000000000000000000000000000000001673ffffffffffffffffffffffffffffffffffffffff83811691821790925560008054604051929316917f4f2638f5949b9614ef8d5e268cb51348ad7f434a34812bf64b6e95014fbd357e9190a350565b60015473ffffffffffffffffffffffffffffffffffffffff1633146102ed576040517f065cd53100000000000000000000000000000000000000000000000000000000815260040160405180910390fd5b60008054604051339273ffffffffffffffffffffffffffffffffffffffff909216917f8be0079c531659141344cd1fd0a4f28419497f9722a3daafe3b4186f6b6457e091a360018054600080547fffffffffffffffffffffffff000000000000000000000000000000000000000090811673ffffffffffffffffffffffffffffffffffffffff841617909155169055565b60005473ffffffffffffffffffffffffffffffffffffffff1633146103cf576040517fd238ed5900000000000000000000000000000000000000000000000000000000815260040160405180910390fd5b6103d8816103db565b50565b6000805460405173ffffffffffffffffffffffffffffffffffffffff808516939216917f8be0079c531659141344cd1fd0a4f28419497f9722a3daafe3b4186f6b6457e091a3600080547fffffffffffffffffffffffff00000000000000000000000000000000000000001673ffffffffffffffffffffffffffffffffffffffff8381169190911790915560015416156103d857600180547fffffffffffffffffffffffff000000000000000000000000000000000000000016905550565b6000602082840312156104ac57600080fd5b813573ffffffffffffffffffffffffffffffffffffffff811681146104d057600080fd5b939250505056fea2646970667358221220d32cab87e14abb2acd03692dd6983e7b3b1aa370e27692ad8a36cb9bf439d78564736f6c634300081100330000000000000000000000009444390c01dd5b7249e53fac31290f7dff53450d",
        "nonce": "0x112d",
        "accessList": []
      },
      "additionalContracts": []
    },
    {
      "hash": "0x1305d1b4813c6018abf49ba3b941cd1786098a46354b77c2a0985fc787b6f802",
      "transactionType": "CALL",
      "contractName": "OperatorFilterRegistry",
      "contractAddress": "0x000000000000AAeB6D7670E522A718067333cd4E",
      "function": "updateOperators(address,address[],bool)",
      "arguments": [
        "0xf0633E4e90FFAC8201B369c2527fF485Ea6133dd",
        "[0xf42aa99F011A1fA7CDA90E5E98b277E306BcA83e, 0x024aC22ACdB367a3ae52A3D94aC6649fdc1f0779, 0xFED24eC7E22f573c2e08AEF55aA6797Ca2b3A051, 0x00000000000111AbE46ff893f3B2fdF1F759a8A8, 0xF849de01B080aDC3A814FaBE1E2087475cF2E354, 0x2B2e8cDA09bBA9660dCA5cB6233787738Ad68329]",
        "true"
      ],
      "rpc": "https://eth-goerli.g.alchemy.com/v2/CZTHmy1An3gYtg1KQR7pGMNChAIk8Tr4",
      "transaction": {
        "type": "0x02",
        "from": "0x9444390c01dd5b7249e53fac31290f7dff53450d",
        "to": "0x000000000000aaeb6d7670e522a718067333cd4e",
        "gas": "0x6f30c",
        "value": "0x0",
        "data": "0xa14584c1000000000000000000000000f0633e4e90ffac8201b369c2527ff485ea6133dd000000000000000000000000000000000000000000000000000000000000006000000000000000000000000000000000000000000000000000000000000000010000000000000000000000000000000000000000000000000000000000000006000000000000000000000000f42aa99f011a1fa7cda90e5e98b277e306bca83e000000000000000000000000024ac22acdb367a3ae52a3d94ac6649fdc1f0779000000000000000000000000fed24ec7e22f573c2e08aef55aa6797ca2b3a05100000000000000000000000000000000000111abe46ff893f3b2fdf1f759a8a8000000000000000000000000f849de01b080adc3a814fabe1e2087475cf2e3540000000000000000000000002b2e8cda09bba9660dca5cb6233787738ad68329",
        "nonce": "0x112e",
        "accessList": []
      },
      "additionalContracts": []
    }
  ],
  "receipts": [],
  "libraries": [],
  "pending": [
    "0xc71925553adee586bb3eac980f70bbfddf8cecdf161b37bfeba3d8737c3c75fc",
    "0x1305d1b4813c6018abf49ba3b941cd1786098a46354b77c2a0985fc787b6f802"
  ],
  "path": "/Users/iain/zora/zora-nft-contracts/broadcast/DeployFeeRegistry.s.sol/5/run-latest.json",
  "returns": {},
  "timestamp": 1668441568,
  "chain": 5,
  "multi": false,
  "commit": "6a38f5c"
}